:020000040800F2
:10000000F00800204D020008433F0008D53C0008DE
:10001000413F000849170008414B0008000000005C
:10002000000000000000000000000000F140000897
:100030004B17000800000000453F0008F34000088F
:1000400067020008670200086702000867020008EC
:1000500067020008670200086702000867020008DC
:1000600067020008670200086702000867020008CC
:1000700067020008670200086702000867020008BC
:1000800067020008670200083D15000867020008C3
:10009000670200086702000867020008670200089C
:1000A000670200086702000867020008670200088C
:1000B00095410008000000000000000067020008F1
:1000C000670200080000000000000000670200084E
:1000D00000000000294B0008354B0008000000001C
:1000E000670200086702000800000000000000002E
:1000F0000000000000000000000000000000000000
:10010000000000000000000000000000670200087E
:1001100000000000000000006702000867020008FD
:10012000670200086702000867020008670200080B
:10013000670200080000000000000000000000004E
:1001400067020008670200086702000867020008EB
:1001500067020008670200086702000867020008DB
:10016000670200086702000867020008000000003C
:10017000670200086702000800000000000000009D
:1001800067020008670200086702000800F002F832
:1001900000F04CF80AA090E8000C82448344AAF1D5
:1001A0000107DA4501D100F041F8AFF2090EBAE8D3
:1001B0000F0013F0010F18BFFB1A43F0010318479B
:1001C000184E0000384E0000103A24BF78C878C19D
:1001D000FAD8520724BF30C830C144BF04680C604D
:1001E000704700000023002400250026103A28BF95
:1001F00078C1FBD8520728BF30C148BF0B60704799
:10020000662904F06F86642900F0CC8000207047D6
:100210001FB504F062FE00F053FC04000020002132
:1002200004F0CEFDE0601FBD10B510BD00F048FD2C
:100230001146FFF7EDFF04F0F3FC00F066FD03B498
:10024000FFF7F2FF03BC00F0A9FD0000094880475A
:1002500009480047FEE7FEE7FEE7FEE7FEE7FEE7A8
:10026000FEE7FEE7FEE7FEE704480549054A064BC0
:1002700070470000854100088D010008F002002051
:10028000F0080020F0040020F004002053EA020CE3
:1002900000F069802DE9F04B4FF00006002B1FBFE6
:1002A000B3FA83F503FA05F424FA05F65E4012BFAB
:1002B0001643B2FA82F502FA05F4C5F120051EBF15
:1002C00022FA05FC44EA0C04203556EA044C4FEAB5
:1002D000144418BF641C4FF000084FF0000990420E
:1002E00071EB030C39D3002919BFB1FA81F701FA78
:1002F00007F6B0FA80F700FA07F6C7F120071EBF2D
:1003000020FA07FC46EA0C062037B6FBF4FCA7EB04
:100310000507103F07F01F0BCBF120060CFA0BFB73
:100320002CFA06F644BFB3460026202FA4BF5E4633
:100330004FF0000B5BEA060C08BF4FF0010B19EB06
:100340000B09ABFB027C48EB0608C01B06FB02CC8A
:100350000BFB03CC71EB0C01C1E70B460246414697
:100360004846BDE8F08B13B54FF000004FF0000198
:10037000AFF30080BDE81C40704700000FB41CB50F
:10038000074B06AA7B4469460090059800F07FFB66
:100390000020694600F08EFB1CBC5DF814FB0000D9
:1003A0002D0700002DE9F04106460024106875294C
:1003B000314616A510D0AFF30080002802DA404283
:1003C00013A507E031688A0701D512A502E04907A5
:1003D00004D511A5012401E0AFF3008000210A2219
:1003E00006F1240709E0B0FBF2FCB0FBF2F302FBDC
:1003F0001C00303078541846491C0028F3D123469D
:100400002A463046BDE8F04100F0D1B800000000B7
:100410002D0000002B000000200000002DE9F05FFF
:10042000894604464FF0000ADFF824B1FB44C0F8C7
:1004300020A02046E168884700287DD0252806D0E6
:10044000D4E901219047206A401C2062F1E7002591
:100450005F462046E16888472028064607DB312EA4
:1004600005D2B81910F8200C08B10543F1E7A80728
:1004700001D525F00405C4F81CA00027C4F818A075
:100480002A2E09D0304604F084FB38B304EB8708E9
:10049000303EC8F8186019E059F8041B204604EBF8
:1004A00087029161E1688847012F064618D1E0690B
:1004B000002820DA25F020051DE0D8F8180000EB10
:1004C000800006EB40003038C8F818002046E1688C
:1004D0008847064604F05DFB0028EED1012F0AD0C4
:1004E0002E2E08D12046E16888477F1C0646022F41
:1004F00045F02005C4DBA069002803DA404245F03E
:100500000105A061E80701D025F01005A6B1A6F10C
:100510004100192802D8203645F400654A46314684
:10052000204625604D46FFF76BFE60B1012807D0DD
:10053000ED1D25F0070000E007E000F1080978E76D
:1005400005F1040975E730467AE7206A00F002B841
:10055000004B000030BCBDE8C09F4FF0000200B56A
:10056000134694469646203922BFA0E80C50A0E8D6
:100570000C50B1F12001BFF4F7AF090728BFA0E884
:100580000C5048BF0CC05DF804EB890028BF40F850
:10059000042B08BF704748BF20F8022B11F0804F92
:1005A00018BF00F8012B70477047704770472DE95E
:1005B000F0470D4699469246044600F1240801682A
:1005C000880604D5E06921F01001216000E00120D7
:1005D000A84201DD471B00E00027A1697A1902EB60
:1005E0000900081AA0612078C00602D42046AFF3A3
:1005F0000080002608E0D4E901211AF8060090479F
:10060000206A401C761C20624E45F4DB2078C00630
:100610000AD52046AFF3008006E0D4E9012130205E
:100620009047206A401C2062381EA7F10107F4DCC5
:1006300007E0D4E9012118F805009047206A401C22
:100640002062281EA5F10105F3DC2046AFF30080EF
:100650002078000602D50220BDE8F0870120FBE7E4
:1006600070472DE9FF4F0C461E464FF0FF378BB009
:10067000D2E90001DDF860800A908A46C1F30A558C
:1006800005B93D46002108464FF00000BAF1000FC1
:1006900000F4400005DA00EB80004FF4400101EA6D
:1006A00050004FEA9059B9F1010F00DDB9460A98A0
:1006B00050EA4A000ED044F61050A5F2FF354543EB
:1006C0002F14B8F1000F1ED07542291E1EDDC9F18E
:1006D00000021CE0B8F1010F4FF0000001D0302102
:1006E00003E0F24305E02154401CB042FBDB3046FE
:1006F0000022002121540B99C1F80880C1E9002093
:100700000FB000F0BCB9BD1B6D1CDEE74A4600DA35
:10071000694206A800F05EFA06AB93E8070003AB57
:1007200083E8070050460A9900F03FFB8DE8070078
:10073000A0F500501F3800900398002D0ADD42F20A
:100740001F014A460844002303A90390684600F0AD
:10075000A8FD09E0A0F500504A461F38002303A970
:100760000390684600F0B2FD8DE807000004000C1D
:1007700003D04FF0FF30410800E01046B8F1000F01
:1007800003D00022009215461EE0751E05D400F02D
:100790009BF9303262556D1EF9D5B34601220843EC
:1007A00002D000227F1C04E02078302801D10022F2
:1007B0007F1E002A099784D01DE0112D07DA00F072
:1007C00083F9303262556D1C50EA0102F5D10843BD
:1007D00002D00098C8B10EE00021681E05E0235C3D
:1007E000625C63542254401E491C8142F7DBAB46D5
:1007F000A81B401E0990002004F80B000B98099AD2
:10080000C0F80880C0E9002B7AE711264FF00008F5
:1008100057E72DE9F04F88460446D21D22F0070124
:1008200091B0D1E90001CDE90A0104F08AF902464C
:100830000B98C00F01D02D2007E02068810701D55B
:100840002B2002E0202101EAC000032A099001D0F8
:10085000072A05DB03464146204600F07BF90BE101
:100860002078800601D5E06900E00620B8F1650F28
:10087000814606D0B8F1660F18D0B8F1670F70D175
:1008800031E00020B9F1110F009001DB112301E0EC
:1008900009F101030AAA01A90CA8FFF7E2FEDDE9AC
:1008A0000C70002609F10105834647E001204B4604
:1008B00000904FF000470AAA01A90CA8FFF7D1FE4B
:1008C000DDE90DB00C995D46002610B909F1010073
:1008D0000D18B9EB050003D4C0F1FF3609F101058D
:1008E000A5EB09002BE0B9F1010F01DA4FF0010986
:1008F0000020B9F1110F0090484601DD112300E0FE
:1009000003460AAA01A90CA8FFF7ABFEDDE90C70AB
:100910004D4600268346207800070AD4AB4500DA0E
:100920005D4601A8012D04DD411911F8011C302993
:1009300007D04F4502DA17F1040F04DA012082468E
:100940000FE06D1EEEE7002F02DCED1B3E4403E0DE
:10095000781CA84200DD7D1CB81B00F1010A4FF095
:1009600000472078000703D4AA4501DB4FF0FF3A87
:100970000021B7F1004F0DF143088DF8431024D04A
:1009800002202B23002F01DA7F422D230A21021E91
:10099000A0F1010000DC5FB197FBF1FC97FBF1F2E5
:1009A00001FB1C7C17460CF1300C08F801CDEEE77A
:1009B000A8F1010003702188090501D5452100E057
:1009C0006521A0F1010800F8011C09980FA9A1EB0D
:1009D0000807FF1D00B10120411901EBEA70A16970
:1009E0003844081A401EA0612078C00602D4204670
:1009F000AFF30080099828B1D4E901219047206A1B
:100A0000401C20622078C00622D52046AFF300802B
:100A10001EE0002E04DBB34502DD01A8805D00E08E
:100A20003020D4E901219047206A401C2062761CC6
:100A3000AAF101005FEA000A0AD100F041F8C0689B
:100A40000168405CD4E901219047206A401C206283
:100A5000281EA5F10105DCDC07E0D4E9012118F826
:100A6000010B9047206A401C2062381EA7F1010745
:100A7000F3DC2046AFF30080032011B041E630BC28
:100A8000BDE8C08F01694A1C02610878704700B553
:100A90008FB0CDE901310021059105497944CDE9B7
:100AA000031011466846FFF7B9FC0FB000BD000007
:100AB000E5FFFFFF0A6802F8010B0A6070470000BB
:100AC00000487047B002002030B5B0F10A024FEA8A
:100AD000900E71F100034EEA817EB0EB0E0061EBE7
:100AE00091014FEA101E4EEA017E10EB0E0041EB21
:100AF00011114FEA102E4EEA016E10EB0E0041EB81
:100B000011214FEA104E4EEA014E10EB0E0041EB60
:100B10001141401841F100014FEAD00040EA417014
:100B20004FEAD10110EB80054FEA810444EA90744A
:100B300044EB01046D1944EB0404521BA3414FF034
:100B4000000348BF0A3200D530BD401C41F100010E
:100B500030BD00002DE9F0411F4604460326016820
:100B6000072A01F4006004DB08B116A505E016A50C
:100B700003E008B115A500E015A521F010002060E4
:100B8000A069C01EA0610FB1401EA0612046AFF356
:100B900000804FB1D4E9012138469047206A401CBB
:100BA0002062C01C206206E0206AFAE7D4E9012135
:100BB00015F8010B9047761EF8D22046AFF300805F
:100BC000BDE8F0814E414E006E616E00494E460018
:100BD000696E66002DE9F047814616468AB03548B1
:100BE00078440DC88DE80D0032487844801C03AC71
:100BF0000DC884E80D0041F69B300844372190FB76
:100C0000F1F290FBF1F5A5F1800501FB12041B3C0C
:100C100002D56442012000E00020DFF898A0804661
:100C20000027FA44AAF1BE0A0EE0E0070AD03246D5
:100C3000684607EB470101230AEB810100F046FB00
:100C40008DE8070064107F1C002CEED1194F7F4403
:100C5000AE3F19E0E80715D007EB04100DF1180AB4
:100C600090E80E008AE80E00C068F04201D19819A1
:100C700008903246012306A903A800F027FB03AB26
:100C800083E807006D10641C002DE3D14FF00103D1
:100C900032466946B8F1000F03A802D000F001FB0C
:100CA00001E000F013FBC9E90001C9F808200AB00F
:100CB000BDE8F087DC430000004870479002002048
:100CC0007546FFF7F9FFAE4605006946534620F02A
:100CD0000700854618B020B5FFF7C6FABDE82040EA
:100CE0004FF000064FF000074FF000084FF0000BE8
:100CF00021F00701AC46ACE8C009ACE8C009ACE89B
:100D0000C009ACE8C0098D46704710B50446AFF382
:100D100000802046BDE81040FFF791BA4FF0013C3B
:100D200050F8042B51F8043B9A4221D1A2EB0C035A
:100D3000934313EACC1317D150F8042B51F8043B1A
:100D40009A4215D1A2EB0C03934313EACC130BD1B7
:100D500050F8042B51F8043B9A4209D1A2EB0C0342
:100D6000934313EACC13DBD04FF00000704700BF71
:100D7000D01A01BAB1FA81F101F0180122FA01F09A
:100D8000CB40C1F12001DBB2C0B2C01A2CFA01F392
:100D9000D11A914311EAC311E6D1704701491820D5
:100DA000ABBEFEE72600020070475FEA400C08BFBA
:100DB00091F0000F4FEA8C234FEAC12243EA5151D0
:100DC0004FEA1C5018BF00F5F0404FEA300018BF42
:100DD00041F000415FEA6C5C00F02980BCF1FF3F0C
:100DE00008BF40F080407047130C06BF12044FF05C
:100DF000100C4FF0000C130E04BF12020CF1080C83
:100E0000130F04BF12010CF1040C930F04BF9200E6
:100E10000CF1020CD30F04BF52000CF1010C11466F
:100E20004FF00002A0F11F00A0EB0C00704711F082
:100E3000004F08BF704731F000413FF4D5AF0B0CB5
:100E400006BF09044FF0100C4FF0000C0B0E04BF4E
:100E500009020CF1080C0B0F04BF09010CF1040C82
:100E60008B0F04BF89000CF1020CCB0F04BF4900AB
:100E70000CF1010CCCF12003A0EB0C0022FA03F3DF
:100E800002FA0CF241EA030100F10100704720F080
:100E90007F4C80EA030023F07F47ACEB070303F5A8
:100EA0007C5300F0004003F1FF032DE980494FEA35
:100EB000154B09B44FEA144325EA0B4E24EA0348C4
:100EC0000FF2042606EB132749083E785FEA320248
:100ED00003FB0667C7F5000707FB06F64FEA543722
:100EE0004FEAD64606F1020607FB066CCCF1005C21
:100EF0004FEA1C472CEA074C07FB06F40CFB06F5EF
:100F000004EB15464FEA961634BF00204FF0004020
:100F10004FEAD13706FB07FC4FEA1C4C0CFB0BF7E2
:100F2000D21B03FB0CF761EB07010CFB0EF7B0EBD8
:100F3000074072EB17420CFB08F734BFA2EB0742E5
:100F4000B2EB074261EB17414FEA0C444FEA9107BD
:100F500006FB07FC4FEA1C4C0CFB0BF7B0EBC74041
:100F600072EB573203FB0CF734BFA2EBC742B2EB74
:100F7000C74261EB57310CFB0EF7B0EBC70072EBC9
:100F800057720CFB08F734BFA2EBC702B2EBC702E3
:100F900061EB5771039F4FEA816141EA921104EBC3
:100FA000CC044FEAD1374FEA826206FB07FC42EAE3
:100FB00090124FEA80604FEA1C4C0CFB0BF7D21BDF
:100FC00003FB0CF761EB07010CFB0EF7B0EB0740DE
:100FD00072EB17420CFB08F734BFA2EB0742B2EBEF
:100FE000074261EB17414FEA8C554FEA910704EB3A
:100FF0009C2406FB07FC4FEA1C4C0CFB0BF7B0EBE8
:10100000C74072EB573203FB0CF734BFA2EBC74269
:10101000B2EBC74261EB57310CFB0EF7B0EBC700E8
:1010200072EB57720CFB08F734BFA2EBC702B2EBAE
:10103000C70261EB577115EB4C254FEA816141EA1C
:1010400092114FEA82624FEAD13742EA901206FBD0
:1010500007FC44F100044FEA80604FEA1C4C0CFB93
:101060000BF7D21B03FB0CF761EB07010CFB0EF730
:10107000B0EB074072EB17420CFB08F734BFA2EB52
:101080000742B2EB074261EB174115EB1C154FEA23
:10109000813141EA92414FEA823242EA90424FEA7C
:1010A00080304FEA0C7644F1000448EA03434EEAEC
:1010B0000B484FF0000EB2EB080C71EB030724BF96
:1010C000624639464EEB0E0E4FF0000B00185241AF
:1010D00049414BEB0B0BB2EB080C71EB03077BF1B7
:1010E000000B24BF624639464EEB0E0E4FF0000B4C
:1010F0000018524149414BEB0B0BB2EB080C71EB62
:1011000003077BF1000B24BF624639464EEB0E0EFF
:1011100051EA020718BF46F0010616EB0E7655F1AC
:10112000000254F1000103D5BDE88901BDE8008843
:10113000BDE88901BDE80048B619524141EB010103
:10114000A3F10103704780807F7E7D7C7B7A797874
:10115000777676757473727171706F6E6E6D6C6C7C
:101160006B6A6A696868676666656464636362611E
:101170006160605F5F5E5E5D5D5C5C5B5B5A5A599F
:10118000595858575756565555555454535352520B
:101190005251515050504F4F4F4E4E4D4D4D4C4C63
:1011A0004C4B4B4B4A4A4A494949484848474747AC
:1011B00047464646454545444444444343434342E9
:1011C000424242414141002B9C4630D477002BD013
:1011D0001CB54FEA370703B44FF010004FF0100171
:1011E000BAF1000F06D0BCF1000FDCBF40F00800E0
:1011F00040F008014FF000000FBCBDE810400BF1BB
:10120000010BBBF1010F08BF5FEA170722BF12F104
:10121000010211F101014FF0004143F1000300F020
:10122000004043EA00007047F9D35708D0E746EA88
:10123000064613F1400F4FEA16461FDD13F1200F4B
:10124000DFBF16430A46002120335B42BED0C3F104
:10125000200746EA064602FA07F74FEA164646EA2C
:101260000706C3F1200722FA03F201FA07F721FA71
:1012700003F14FF0000342EA0702A7E746EA02063D
:1012800046EA06464FEA164646EA0106BCBF46EA6B
:101290000646360C4FF000034FF000024FF00001FD
:1012A00094E72DE9804C9A46934670B491E8380053
:1012B00007C831EA400C48BF34EA430C03D5FFF7B6
:1012C000E6FDFFF780FFF0BCBDE8008C2DE9804C07
:1012D0009A46934670B491E8380007C810F0804FE2
:1012E00008BF13F0804F03D100F005F8FFF76BFF44
:1012F000F0BCBDE8008C20F07F4780EA030023F0BB
:101300007F4C07EB0C03A3F57C5300F00040A3F1E6
:10131000FE0392F0000F00F0B38095F0000F00F094
:1013200077802DE901494FEA11404FEA144621EA3E
:10133000004800FB06FC24EA064708FB06F607FB0C
:1013400008F800FB07F718EB06484CEB164C4FEA81
:10135000124B18EB07484FEA15464CEB174022EAB0
:101360000B4E0BFB06FC25EA06470EFB06F607FBB9
:101370000EFE0BFB07F71EEB064E4CEB164C4FF028
:1013800000061EEB074E4CEB174B18EB0B0840F119
:10139000000018EB0E0B58EB000840F100008F1A0C
:1013A0004FF000013CBFC943661B14BFB5EB040CF2
:1013B00000213CBFC943F61B4FEA17444EEA8E0E8C
:1013C00027EA04454FEA1C4704FB07622CEA074C56
:1013D00005FB07F70CFB05F604FB0CFC16EB0746B8
:1013E00042EB174216EB0C4642EB1C421BEB060687
:1013F00058EB0202414146EA9E0601D5BDE801894B
:10140000B619524141EB0101A3F10103BDE8018985
:101410004FEA14454FEA114724EA054621EA074CF2
:1014200005FB07F406FB07F70CFB06F105FB0CFCBC
:1014300011EB074144EB17444FEA124711EB0C4103
:1014400044EB1C4422EA074C05FB07F206FB07F7B6
:101450000CFB06F605FB0CFC16EB074642EB1742AD
:1014600016EB0C4642EB1C456A1854F1000148BFCC
:101470007047B619524141EB0101A3F101037047D6
:1014800095F0000F37D04FEA11424FEA144721EA96
:10149000024624EA074C02FB07F106FB07F70CFBA8
:1014A00006F402FB0CFC14EB074441EB17414FEA36
:1014B000154714EB0C4441EB1C4125EA074C02FB99
:1014C00007F506FB07F70CFB06F602FB0CFC16EB18
:1014D000074645EB174516EB0C4645EB1C42121927
:1014E00051F1000148BF7047B619524141EB01016B
:1014F000A3F1010370474FEA14454FEA114724EA6C
:10150000054621EA074C05FB07F106FB07F70CFB34
:1015100006F24FF0000605FB0CFC12EB074241EB14
:10152000174112EB0C4251EB1C4148BF7047921817
:1015300041EB0101A3F1010370470000014800F0F5
:1015400091BB0000800000202DE9F04104460027F7
:101550000D46006802F0C9FB0646206802F0C1FB98
:1015600030435DD02068C1682E4E890105D5617E6B
:10157000012902D1217E01290BD0022D1DD0206826
:1015800002F0B3FBB8B120688168C1F3400169B1D2
:1015900011E00125244902E08F4232D27F1C02680B
:1015A000D2435206F8D440210160E8E78168314017
:1015B00041F010018160012D11D0206802F091FBF3
:1015C00048B120688168C1F3400121B98168314088
:1015D00041F020018160022D08D0032D04D00425A4
:1015E00000F08EFF064617E00C25F9E70825F7E71F
:1015F00000F086FF801B05280ED9206880682842ED
:101600000AD0606D40F010006065A06D40F00100F0
:10161000A0650120BDE8F081206880682842E7D1FC
:101620000020F7E7C0FFFF7F000040A370B504462D
:10163000006881688268C1F3400112F0010F28D070
:1016400039BB816801F00D01012914D18168124A6A
:101650001140891C816021680320086000F050FF60
:10166000054612E000F04CFF401B02280DD920680F
:101670008068C00709D0606D40F010006065A06D03
:1016800040F00100A065012070BD20688068C0079F
:10169000E8D1002070BD0000C0FFFF7FF8B5044610
:1016A000002000902068816811F0010F41D181680D
:1016B000214A11422ED18168D5432940491C8160BD
:1016C0001E48806800F0E07000020DD51C481D49DE
:1016D0000068B0FBF1F0401C00EB4000800000E02F
:1016E000401E00900028FBD100F00AFF06461BE0D8
:1016F000816811F0010F03D181682940491C816084
:1017000000F0FEFE801B02280ED920680068C0434E
:10171000C00709D0606D40F010006065A06D40F01A
:101720000100A0650120F8BD20680168C943C90710
:10173000DED10020F8BD00003F000080000304500F
:1017400018000020400D0300FEE7704772B6FEE768
:10175000F8B500260446009690F850000D46012882
:101760000BD0012084F850002046FFF75FFF0100F6
:10177000606D04D040F010002BE00220F8BD20F492
:10178000885040F00200606520688268134B1A4060
:1017900005F080431A4342F0004282604FF49123E7
:1017A00020680EE0009A521C00929A4209D3606DA4
:1017B00020F0020040F01000606584F850600120C5
:1017C000F8BD8268D20FEDD1606D20F0020040F0CC
:1017D0000100606584F850600846F8BDC0FFFF3F17
:1017E0007047704770477047704700002DE9F84F09
:1017F00000270446009790F85000DFF8B0930D469C
:10180000B846012811D0012684F85060206802F003
:101810006CFA60B1606D40F0200060655FF0010718
:1018200084F85080384600F0D7B90220FBE7696899
:101830000C20052912D8022907D0032907D0042932
:1018400007D0052907D0062107E0686006E01221CD
:1018500003E0182101E04FF480716960D5E90021AF
:10186000236800EA91101844036B01F01F014FF048
:101870001F0C0CFA01FCC2F3846223EA0C038A40B9
:1018800013430363206802F030FA8246206802F0B6
:1018900028FA5AEA00001DD1AA682968206802F0D7
:1018A00030FA20686969C268C2F3C10252009140EF
:1018B0002A69042A0FD000EB82002B68026EDFF841
:1018C000F0C203F0F84302EA0C020B431A4342F061
:1018D0000041016672E0002102F0FDF9400320683A
:1018E0004FF0000172D002F0F6F990FAA0F0B0FAD1
:1018F00080F1286842036ED090FAA0F0B0FA80F030
:10190000814204D100221146206802F009FA012127
:10191000206802F0E0F9400320684FF001015DD03B
:1019200002F0D9F990FAA0F0B0FA80F128684203E9
:1019300059D090FAA0F0B0FA80F0814204D1002290
:101940000121206802F0ECF90221206802F0C3F9BD
:10195000400320684FF0020148D002F0BCF990FA31
:10196000A0F0B0FA80F12868420344D090FAA0F0C9
:10197000B0FA80F0814204D100220221206802F0F6
:10198000CFF90321206802F0A6F9400320684FF048
:10199000030133D002F09FF990FAA0F0B0FA80F181
:1019A000286842032FD090FAA0F0B0FA80F081426C
:1019B00004D100220321206802F0B2F92068816876
:1019C00011F0010F22D0ACE000E004E002F083F956
:1019D000C0F384618DE7C0F3846091E702F07BF986
:1019E000C0F38461A2E7C0F38460A6E702F073F954
:1019F000C0F38461B7E7C0F38460BBE702F06BF922
:101A0000C0F38461CCE7C0F38460D0E72A7B296807
:101A100050F8B03FC1F3120C23EA0C0302F0180C8B
:101A2000644A22FA0CF20A4013430360E96849450C
:101A300077D1286841031CD090FAA0F1B1FA81F166
:101A4000491C01F01F0109294FEA403132D8002911
:101A500012D000BF90FAA0F1B1FA81F101F10101B9
:101A600001F01F0106FA01F609D100BFC0F384613D
:101A700009E0C0F38461E3E7C0F38461EEE790FA24
:101A8000A0F1B1FA81F101F1010101F01F0146EA73
:101A9000816102D1C0F3846003E090FAA0F0B0FA53
:101AA00080F000F1010000F01F0000EB400041EA6F
:101AB000005132E000290ED090FAA0F1B1FA81F184
:101AC00001F1010101F01F0106FA01F606D100BF84
:101AD000C0F3846106E0C0F38461F1E790FAA0F1FD
:101AE000B1FA81F101F1010101F01F0146EA8161C2
:101AF00002D1C0F3846003E090FAA0F0B0FA80F065
:101B000000F1010000F01F002B4A00EB400002EB47
:101B1000005041EA000141F00071AA68206802F01B
:101B2000F0F826482A6802423FF47AAE24488168D9
:101B3000244D254B01F0E071AA421BD10D0219D4AE
:101B400022689A427FF46CAE826841F4000122F070
:101B5000E0720A4382601D481D490068B0FBF1F045
:101B6000401C00EB4000800000E0401E0090002878
:101B7000FBD155E6174DAA4207D1CD0105D4226805
:101B80009A42F6D141F080710AE06FF00045EA42D6
:101B9000EFD14A02EDD422689A42EAD141F48001A1
:101BA000826822F0E0720A43826039E600007F40DA
:101BB00000F0FF03FFFF0700000020FE0000088088
:101BC00000030450000052C7000004501800002019
:101BD000400D0300000084CB18BCBDE8E08F00007E
:101BE00010B5184988422BD1084600F038F800EEAD
:101BF000100ADFED160A1448B8EE400A9FED141AD9
:101C000080ED010A60EE200A80EE810A80ED020A72
:101C100010EE100A03F0F0F841EC100B094853ECF9
:101C2000102B0CA16438FEF7A9FB06496422643925
:101C3000BDE810404FF0FF3301F5F27001F0EEBF48
:101C400010BD000080000020000000200000A5431F
:101C500000C07F4425302E336600000070470068C6
:101C6000006C70472DE9F04104460068066845683D
:101C7000B0070ED5A8070CD5606DC00603D4606D03
:101C800040F4006060652046FFF7AAFD216802204D
:101C90000860700701D5680703D4300725D52807E9
:101CA00023D5606DC00603D4606D40F4007060659C
:101CB000206802F01EF890B12068C16889040ED433
:101CC000016809070BD502F010F800287DD0606D7F
:101CD00040F010006065A06D40F00100A065204656
:101CE000FFF77EFF21680C200860B00601D5A8062A
:101CF00003D4700631D568062FD5606DC00603D4B5
:101D0000606D40F4005060652068C16C11F0C00F38
:101D10007DD0002701F0EDFF21680246C868B7B109
:101D2000830102D59AB1820411D40A6852060ED5F5
:101D300080020CD4084601F0D4FF00287FD0606DEB
:101D400040F010006065A06D40F00100A0652046E5
:101D5000FFF747FD21686020086030060BD5280694
:101D600009D5606D40F480306065204600F054F97C
:101D7000216880200860F0050CD5E8050AD5606D63
:101D800040F4003060652046FFF72DFD21684FF4D8
:101D900080700860B0050CD5A8050AD5606D40F4C8
:101DA000802060652046FFF71FFD21684FF400701A
:101DB0000860F00617D5E80615D5606B18B12068E5
:101DC000C068C0070CD0606D00E024E040F4806083
:101DD0006065A06D40F00200A0652046FFF73EFF61
:101DE00021681020086070053BD5680539D5606D05
:101DF00040F480406065A06D40F00800A065216857
:101E00004FF4806008602046BDE8F04101E014E036
:101E100015E0FFF7E7BC2068416821F00C01416044
:101E2000606D20F480706065606DC0043FF557AF51
:101E3000606D40F00100606551E701276AE72068A6
:101E4000416821F060014160606D20F48050606560
:101E5000606DC0053FF57BAF606D40F001006065CF
:101E600075E7BDE8F0810000F8B54FF0000504000B
:101E70002E46009502D0606D10B107E00120F8BD3C
:101E8000204600F0CBF8A66584F850602068816891
:101E9000C1F3407119B18168574A114081602068CF
:101EA0008168C1F3007189B98168544A114041F0D9
:101EB00080518160524853490068B0FBF1F0400006
:101EC000801C00E0401E00900028FBD12068816843
:101ED000C1F3007141B9616D41F010016165A16DFF
:101EE00041F00101A165012501F0FFFE616DC90608
:101EF00000D430B1606D40F01000606501252846C7
:101F0000F8BD606D20F4807040F0020060652068CC
:101F1000806810F0010F0BD13B48806810F0010F72
:101F200006D13A486168826822F47C120A438260D2
:101F3000E168606B627E0843A16841EA4231084370
:101F400094F8201040EA0140012904D1A18C304AC4
:101F500002EB41410843A16A29B101F47071E26AC0
:101F6000014342EA01002168CA682A4B1A40024331
:101F7000CA60206801F0B9FE0646206801F0B1FE93
:101F8000304315D1207E94F83010800340EA4100A0
:101F90002168CA6844F202039A430243CA6094F873
:101FA000380001280CD02068016921F0010101618D
:101FB000206901282068016B21F00F0111D013E086
:101FC000D4E90F010843D4E91112114308432168F1
:101FD0000A6940F2FC739A43104340F00100086123
:101FE000E6E7E269521E11430163606D20F00200D2
:101FF00040F00100606582E7C0FFFF5FC0FFFF7F28
:1020000018000020400D030000000450000304509D
:102010000000FEFF07C0F0FF7047000010B59CB045
:102020000446142115A8FEF798FA54216846FEF7D5
:1020300094FA2149206888423BD14FF480400090B7
:102040008003129001200190029015200390072038
:1020500004900220059006200690880107906846AB
:1020600000F030FB08B1FFF771FB1448C16C41F47C
:102070000051C164C16C01F400511A91C16C41F06E
:102080000101C164C06C15A900F001001A90502034
:1020900015900B201690002017904FF0904000F004
:1020A00029F900221146122000F08EFA122000F0C9
:1020B0007DFA1CB010BD000000000450001002406A
:1020C0002DE9F041044640690E4608280AD02068F0
:1020D000C068C00708D0606D40F020006065012036
:1020E000BDE8F081082500E0042500F009FA074664
:1020F00014E0701C12D000F003FAC01BB04200D8EC
:1021000066B920680068284208D1606D40F004007C
:102110006065002084F850000320E1E72068006833
:102120002842E6D0606D40F400706065206801F0E0
:10213000E0FD80B1607E70B92068006800070AD5B4
:10214000606D20F480706065606DC00403D4606DC4
:1021500040F0010060652068C168082D05D0490481
:1021600001D40C2101600020BAE70821FAE7000041
:1021700010B50446006801F0B8FD10B10221084610
:1021800010BD94F8500001280CD0012084F85000B4
:102190002046FFF783FA01004FF0000004D084F8D6
:1021A0005000ECE7022010BD626D40F601639A43D7
:1021B00042F480726265626DD20404D5A26D22F091
:1021C0000602A26500E0A06523681C221A6084F85C
:1021D00050002068C268920105D5626D22F4005259
:1021E00042F4805262658268024B1A40121D82607E
:1021F000C5E70000C0FFFF7F10B5044690F850000F
:10220000012808D0012084F8500003212046FFF760
:102210009BF910B10BE0022010BD2046FFF706FA33
:1022200028B9616D21F4885141F0010161650021F7
:1022300084F8501010BD10B590F825100022022926
:1022400005D00421C16380F82420012010BD01685D
:102250000B6823F00E030B6001680B6823F0010389
:102260000B6090F84410046C01F01C03012101FA8A
:1022700003F3636080F8251080F82420104610BD19
:1022800010B590F825100024022903D00421C16361
:1022900001241AE001680A6822F00E020A6001684F
:1022A0000A6822F001020A6090F84410036C01F001
:1022B0001C02012101FA02F25A6080F82510002167
:1022C00080F82410816B01B18847204610BD0000C2
:1022D00070B5044600F014F90546601C02D00448AD
:1022E0000078044400F00CF9401BA042FAD370BD02
:1022F0000C0000202DE9F04FDFF8E09100230127CA
:102300000326A9F1040B85B00F2509F1040AABF1EE
:10231000040EDBE007FA03FC12EA0C027ED00C7913
:1023200004F00304012C01D0022C20D18468009415
:102330005C0006FA04F80494009C24EA0804009463
:10234000D1F80C80049C08FA04F8009C48EA0408C0
:10235000C0F80880446824EA0C0491F804C0CCF367
:10236000001C0CFA03FC4CEA040CC0F804C00C7905
:10237000E443A4070DD0D0F80CC04FEA430806FA96
:1023800008F42CEA040C8C6804FA08F444EA0C04FF
:10239000C4600C7904F00304022C19D1DC0800EBB2
:1023A00084040294246A4FEA437C4FEADC6CCDF843
:1023B00010C005FA0CFC24EA0C04D1F81080DDF8FA
:1023C00010C008FA0CF848EA0408029CC4F82080FF
:1023D00004684FEA430806FA08FC24EA0C0491F862
:1023E00004C00CF0030C0CFA08FC4CEA040CC0F816
:1023F00000C04C6814F4403F67D0394CD4F860C03A
:102400004CF0010CC4F860C0246E23F0030C04F0FF
:1024100001040094334C6444029400E055E0A46845
:102420004FEA837C4FEA1C7805FA08FC24EA0C0486
:10243000B0F1904F06D0DFF8B0C0604505D14FF045
:10244000010C0BE04FF0000C08E0DFF8A0C0604585
:1024500002D14FF0020C01E04FF0070C0CFA08FC1F
:102460004CEA040C029CC4F808C0D9F80040CC46E1
:10247000D1F8048094435FEAC82800D51443CCF80F
:102480000040DAF80040D446D1F8048094435FEA73
:10249000882800D51443CCF80040DBF80040DC4627
:1024A000D1F8048094435FEA883800D51443CCF80F
:1024B0000040DEF80040F446D1F8048094435FEA1F
:1024C000C83800D51443CCF800405B1C0C68224689
:1024D000DC407FF41FAF05B000F00AB808040140EB
:1024E00000100240000001400004004800080048BD
:1024F00030BCBDE8C08F0AB181617047816270470E
:1025000001488068704700000C0000200248816884
:1025100002781144816070470C00002010B500243F
:10252000032000F071F8002000F008F808B1012441
:1025300001E000F025F8204610BD000070B50E4EF9
:1025400005460024307898B14FF47A71B1FBF0F071
:102550000A490968B1FBF0F000F0C2FD40B9102D46
:1025600006D200222946501E00F02EF8756000E0C9
:102570000124204670BD00000C000020180000203F
:10258000094808B5016E41F001010166016E01F0D4
:1025900001010091816D41F080518165806D00F0F5
:1025A0008050009008BD000000100240002809DBA8
:1025B00000F01F02012191404009800000F1E0205D
:1025C000C0F8001170470000F0B40E4B1B680C46B9
:1025D000C3F30223C3F10705042D00D90425191DF7
:1025E000072901D2002300E0DB1E012606FA05F1CF
:1025F000491E214099409E40761E16403143F0BC52
:1026000002F0B7BA0CED00E0064900F007020868D6
:102610004FF6FF03184040EA0220034A10430860C7
:10262000704700000CED00E00000FA051649B0F517
:10263000007F0868C0F3412009D0022805D008684F
:1026400020F4C06040F480600860002070470128DA
:10265000FBD0086820F4C06040F4007008600B48AC
:102660003222006850430A4AB0FBF2F0401C00E0FE
:10267000401E4A69520501D50028F9D14869400534
:10268000E3D50320704700000070004018000020D0
:1026900040420F000248006800F4C060704700002C
:1026A000007000400248016841F480710160704789
:1026B000007000400248016841F004010160704769
:1026C000001002402DE9F84F0446002700889C4D79
:1026D0003E46000515D5E06B60B1B0F5000F04D0A3
:1026E000B0F5400F2BD001270AE0E86840F48030B5
:1026F000E86024E00021201D01F026FC07001ED028
:102700003E462068800338D5A86D4FF00008C00011
:1027100009D4A86D40F08050A865A86D4FF001085D
:1027200000F080500090DFF81CA2DAF8001041F4AD
:102730008071CAF80010FFF7E3FE814610E0D5F87B
:102740008800E16B20F440000843C5F88800D8E712
:10275000FFF7D6FEA0EB0900022801D9032704E009
:10276000DAF80000C005F3D5EFB33E46B8F1000F2C
:1027700003D0A86D20F08050A8652078C00707D04E
:10278000D5F88800216A20F003000843C5F88800C6
:102790002078800707D5D5F88800616A20F00C0002
:1027A0000843C5F888002078800607D5D5F888004A
:1027B000A16A20F440600843C5F88800208880059D
:1027C00007D5D5F88800616B20F440200843C5F890
:1027D00088002088400509D5D5F88800A16B20F431
:1027E0004010084300E02EE0C5F88800207840063D
:1027F00007D5D5F88800E16A20F440500843C5F8B1
:1028000088002088C00507D5D5F88800216B20F402
:1028100040300843C5F8880020884FF000678004E6
:102820004FF080684ED5D5F88800216C20F04060CC
:102830000843C5F88800206CB8423BD1E86840F4F2
:102840008010E8603EE0D5F8900010F4407014D09D
:10285000216D814211D0D5F89000D5F8901020F468
:10286000407041F48031C5F89010D5F8901021F4F3
:102870008031C5F89010C5F89000C00711D0FFF75F
:102880003FFE074641F2883907E000BFFFF738FEF8
:10289000C11B494501D9032668E7D5F89000800798
:1028A000F4D5D5F89000216D20F440700843C5F8A8
:1028B00090005BE7404505D10121201D01F044FB5C
:1028C00000B106462068400317D5D5F88800616C32
:1028D00020F040600843C5F88800606CB84204D11D
:1028E000E86840F48010E86007E0404505D1012128
:1028F000201D01F029FB00B106462088400411D5B7
:10290000D5F88800A16C20F040500843C5F8880035
:10291000A06CB0F1805F05D10221201D01F014FBF5
:1029200000B106462088000406D555F8880FE16CF2
:1029300020F0804008432860304600F005B80000D1
:10294000001002400070004018BCBDE8E08F00009D
:102950002DE9F0470F4605006BD0494E306800F076
:102960000700B84209D2306820F0070038433060D1
:10297000306800F00700B8425BD12878414C8007EE
:102980000AD5A868A16801F0F001884204D9A168BD
:1029900021F0F0010143A1602878C0072CD06868BD
:1029A000032811D0022812D0216898B149050029C6
:1029B0003FDAA16821F003010143A160FFF7A0FD08
:1029C000804641F2883910E021688901EFE72168EB
:1029D0008903ECE78907EAE7FFF792FDA0EB08011E
:1029E000494502D90320BDE8F087A068696800F076
:1029F0000C00B0EB810FEFD1287880070AD5A868CA
:102A0000A16801F0F001884204D2A16821F0F00130
:102A10000143A160306800F00700B8420BD930686C
:102A200020F0070038433060306800F00700B842FB
:102A300001D00120D7E72878400705D5A068E968CC
:102A400020F4E0600843A0602878000706D5A0685D
:102A5000296920F4605040EAC100A06000F03EF80F
:102A6000A168094AC1F30311515C01F01F01C8407C
:102A70000649086006480068BDE8F047FFF75EBDFC
:102A80000020024000100240E84E0008180000201C
:102A9000100000200548064900688968054AC1F30E
:102AA0000221515C01F01F01C8407047180000204E
:102AB00000100240284F0008054806490068896850
:102AC000054AC1F3C221515C01F01F01C8407047A3
:102AD0001800002000100240284F000870B525495A
:102AE000002318468A68CC6812F00C0204F0030632
:102AF000214C4FEA640509D00C2A05D0042A32D0B3
:102B0000082A00D1284670BD012E10D10B681B0782
:102B100004D4D1F89430C3F3032302E00B68C3F369
:102B20000313164E56F82330DAB10C2AEBD1C868DD
:102B300000F00300022818D0032818D01846CA68ED
:102B4000CB68C2F30212C3F306234343521CB3FB08
:102B5000F2F2C868C0F34160401C4000B2FBF0F0E4
:102B600070BD184670BD204670BD2046E7E7284678
:102B7000E5E70000001002400024F400F84E0008D1
:102B80002DE9F84304006FD0FA4DA86800F00C0658
:102B9000E86800F003072078C00664D576B10C2EF3
:102BA00001D1012F0AD0A069002828687AD040F00E
:102BB00001002860FFF7A4FC80465DE028688007DC
:102BC00002D5A0690028DED0216A2868000703D555
:102BD000286800F0F00004E0D5F89400F02202EA42
:102BE0001010814216D9084601F044FA00283BD162
:102BF000286840F0080028602868216A20F0F0006A
:102C0000084328606868E16920F47F4040EA0120B9
:102C1000686016E0286840F0080028602868216A8B
:102C200020F0F000084328606868E16920F47F40E4
:102C300040EA0120686026B9206A01F01BFA0028EA
:102C4000D5D1FFF74BFFA968CB4AC1F30311515C03
:102C500001F01F01C840C9490860C9480068FFF772
:102C60006DFC00287ED12EE0CAE000BFFFF748FCD3
:102C7000A0EB0800022876D828688007F6D52868D7
:102C800040F0080028602868216A20F0F00008431E
:102C900028606868E16920F47F4040EA01206860AC
:102CA00011E0FFE720F001002860FFF729FC8046D3
:102CB00006E000BFFFF724FCA0EB08000228DAD8EA
:102CC00028688007F6D42078C00740D0082E18D096
:102CD0000C2E01D1032F14D06068B0F5803F17D0BF
:102CE000B0F5A02F286817D020F48030286028681D
:102CF00020F4802028606068E0B1FFF701FC804686
:102D000014E02868800322D56068002878D01EE08F
:102D1000286840F48030EDE740F480202860F7E731
:102D2000FFF7EEFBA0EB08006428A4D82868800316
:102D3000F6D50CE0FFF7E4FB804605E0FFF7E0FB8B
:102D4000A0EB0800642896D828688003F6D4207881
:102D500080073BD5042E11D00C2E01D1022F0DD0AF
:102D6000E06801E0AAE1FFE0002828681ED040F4F6
:102D700080702860FFF7C4FB07460CE02868400518
:102D80000CD5E0680028C1D008E000BFFFF7B8FB11
:102D9000C01B022893D828684005F7D56868217CB5
:102DA00020F0F85040EA016068600FE020F4807085
:102DB0002860FFF7A5FB074605E000BFFFF7A0FB73
:102DC000C01B0228B1D828684005F7D42078000736
:102DD00029D560690028D5F8940012D040F0010090
:102DE000C5F89400FFF78CFB074604E0FFF788FB6B
:102DF000C01B022899D8D5F894008007F6D512E0B8
:102E00002BE120F00100C5F89400FFF779FB07469D
:102E100005E000BFFFF774FBC01B022885D8D5F87A
:102E200094008007F6D42078400766D5A86D002767
:102E3000C00008D4A86D40F08050A865A86D012797
:102E400000F0805000904F480168C90512D4016815
:102E5000814641F480710160FFF752FB804605E036
:102E6000FFF74EFBA0EB080002287DD8D9F8000040
:102E7000C005F5D5A068012816D00528D5F8900022
:102E800017D020F00100C5F89000D5F8900020F090
:102E9000040000BFC5F89000A06841F28839C0B1B5
:102EA000FFF72EFB80460FE0D5F8900040F00100C0
:102EB000F0E740F00400C5F89000F5E7FFF720FBCD
:102EC000A0EB080149454FD8D5F890008007F5D50B
:102ED0000EE0FFF715FB804606E000BFFFF710FB92
:102EE000A0EB080149453FD8D5F890008007F5D4FC
:102EF0001FB1A86D20F08050A8652078800628D5E5
:102F0000606A0028D5F8980012D040F00100C5F89A
:102F10009800FFF7F5FA074605E000BFFFF7F0FA63
:102F2000C01B022820D8D5F898008007F6D510E0FD
:102F300020F00100C5F89800FFF7E2FA074604E028
:102F4000FFF7DEFAC01B02280ED8D5F898008007DC
:102F5000F6D4A06AF0B3022816D00C2E7DD02868D3
:102F600020F08070286000E0A7E0FFF7C9FA04466F
:102F7000A6E0000000100240E84E00081800002003
:102F80001000002000700040E868E26A00F00301D1
:102F9000914228D1216B00F0700209011039914251
:102FA00021D1626B00F4FE41B1EB022F1BD194F8EA
:102FB000382000F07841B1EBC26F14D1A18F00F43A
:102FC000C00249084905A1F5001191420BD194F8BE
:102FD000401000E06AE04908490600F0C060A1F135
:102FE000007181424BD00C2E73D02868400170D400
:102FF000286820F080702860FFF782FA064604E017
:10300000FFF77EFA801B022857D828688001F7D482
:10301000F4E90B016FF00F0202EB01110843218A62
:103020005204490802EB4151A26841EA02210843D7
:10303000217D4FF07E42490802EB41610843217B2C
:1030400040EAC160E968244A11400843E860286802
:1030500040F080702860E86800E03AE040F080705E
:10306000E860FFF74DFA044605E000BFFFF748FAB5
:10307000001B022821D828688001F7D527E028689E
:10308000800124D4286840F080702860E86840F00F
:103090008070E860FFF734FA044604E0FFF730FA86
:1030A000001B022809D828688001F7D50FE000BF6F
:1030B000FFF726FA001B022802D90320BDE8F88397
:1030C00028688001F4D4E86804490840E8600020DA
:1030D000F4E70120F2E700008C809D01FCFFEEFE8A
:1030E00010B5401EB0F1807F01D3012010BD4FF01C
:1030F000E02460610F21601701F03BFD0020A0611A
:1031000007202061002010BD704770477047000005
:10311000F0B590F83C20012A29D0012480F83C40E9
:10312000022280F83D2003685A689D68114EB34220
:1031300003D122F470074A683A4322F070070A6804
:103140003A435A600268B24205D0B2F1804F02D0D1
:10315000094B9A4204D1896825F080031943916094
:1031600080F83D40002180F83C100846F0BD022068
:10317000F0BD0000002C01400040014010B50400EB
:1031800003D094F83D0010B107E0012010BD0020ED
:1031900084F83C00204600F023F8022084F83D002B
:1031A000211D206800F0FCFF012084F8480084F80D
:1031B0003E0084F83F0084F8400084F8410084F821
:1031C000420084F8430084F8440084F8450084F801
:1031D000460084F8470084F83D00002010BD000040
:1031E00008B5114A01681148914208D1016E41F4B5
:1031F00000610166006E00F40060009008BDB1F14E
:10320000804FFBD1816D41F001018165806D00220D
:1032100000F00100009011461C20FFF7D5F9BDE831
:1032200008401C20FFF7C2B9002C014000100240EA
:1032300090F83D10012901D001207047022180F84B
:103240003D1000680B49884205D0B0F1804F02D094
:103250000949884207D18168084A1140062906D0E9
:10326000B1F5803F03D0016841F001010160002009
:1032700070470000002C01400040014007000100A1
:1032800070B5044690F83C000025012817D00126AF
:1032900084F83C60022084F83D00226890682F4B3F
:1032A000184020F47F4090600868502838D00DDC2A
:1032B00020284FD005DC90B3102811D14AE002201D
:1032C00070BD302846D040280AD13BE060282FD07E
:1032D00070280DD0B0F5805F03D0B0F5005F12D03C
:1032E000012584F83D60002084F83C00284670BD2C
:1032F000CB68D1E90121206800F095FF2068816842
:1033000041F0770109E0CB68D1E90121206800F0A4
:103310008AFF2068816841F480418160E1E719E01B
:10332000CA684968206801F0CFF85021206806E09B
:10333000CA684968206801F0D8F86021206800F068
:103340007CFFCEE7CA684968206801F0BDF84021DB
:103350002068F4E7226801461046F0E788FFFEFF88
:10336000704770B50446006801694FF00005C94315
:10337000890715D4C168C943890711D4E91E0161C1
:1033800001202077206880698007204602D0FFF75F
:10339000E7FF04E000F0CEF8204600F090F9257732
:1033A00020680169C943490717D4C168C94349075F
:1033B00013D46FF004010161022020772068806936
:1033C00010F4407F204602D0FFF7CAFF04E000F06F
:1033D000B1F8204600F073F9257720680169C943E8
:1033E000090716D4C168C943090712D46FF0080150
:1033F0000161042020772068C0698007204602D040
:10340000FFF7AEFF04E000F095F8204600F057F912
:10341000257720680169C943C90617D4C168C94323
:10342000C90613D46FF010010161082020772068CD
:10343000C06910F4407F204602D0FFF791FF04E0FE
:1034400000F078F8204600F03AF925772068016905
:10345000C943C90708D1C168C943C90704D1891E36
:103460000161204600F094F920680169C94309060A
:1034700009D4C168C943090605D46FF08001016110
:103480002046FFF742FE20680169C943C90509D4F7
:10349000C168C943090605D46FF4807101612046F3
:1034A000FFF732FE20680169C943490609D4C168A3
:1034B000C943490605D46FF040010161204600F080
:1034C00068F920680169C94389060BD4C168C943FA
:1034D000890607D46FF0200101612046BDE87040E5
:1034E000FFF714BE70BD000010B586B0044614216D
:1034F0006846FDF732F82068B0F1804F16D10C48CD
:10350000C16C41F00101C164C06C694600F001006A
:10351000059020200090022001900020029003904E
:10352000012004904FF09040FEF7E4FE06B010BD7D
:1035300000100240704770B5044690F83C00002629
:103540000D4601280BD0012084F83C000C2A4AD0FB
:1035500007DC82B1042A20D0082A06D131E00220FB
:1035600070BD102A53D0142A63D00126002084F89D
:103570003C00304670BD206800F068FE206881691C
:1035800041F0080181612068816921F004018161B5
:10359000206881692A69114311E0206800F092FED9
:1035A0002068816941F4006181612068816921F4AA
:1035B00080618161206881692A6941EA0221816113
:1035C000D4E7206800F0BAFE2068C16941F0080124
:1035D000C1612068C16921F00401C1612068C1692D
:1035E0002A69114311E0206800F0E2FE2068C169F9
:1035F00041F40061C1612068C16921F48061C16149
:103600002068C1692A6941EA0221C161AEE72068E8
:1036100000F0FEFE2068416D41F008014165206820
:10362000416D21F0040141652068416D2A69114313
:1036300011E0206800F01AFF2068416D41F400613C
:1036400041652068416D21F4806141652068416DCC
:103650002A6941EA0221416588E710B5040003D0D8
:1036600094F83D0010B107E0012010BD002084F85F
:103670003C00204600F022F8022084F83D00211D85
:10368000206800F08DFD012084F8480084F83E0099
:1036900084F83F0084F8400084F8410084F8420038
:1036A00084F8430084F8440084F8450084F8460018
:1036B00084F8470084F83D00002010BD7047704733
:1036C00010B50446022269B1042912D0082917D086
:1036D0000C291CD0102921D094F84300012824D0B3
:1036E000012010BD94F83E000128F9D184F83E2055
:1036F0001DE094F83F000128F2D184F83F2016E045
:1037000094F840000128EBD184F840200FE094F8B1
:1037100041000128E4D184F8412008E094F84200F7
:103720000128DDD184F8422001E084F84320012201
:10373000206800F06BFD12492068124A884204D0CC
:10374000904202D0104B984203D1436C43F40043A3
:1037500043642068884204D0B0F1804F01D0904289
:1037600007D18168094A1140062906D0B1F5803F8A
:1037700003D0016841F001010160002010BD00008C
:10378000002C0140004001400044014007000100BE
:103790007047704770477047704700002DE9F0414F
:1037A00002680446D0691168936840F60F05284204
:1037B0004FF0000505D186067ED58E067CD5616E5C
:1037C0001BE1994F03F001060F40374374D0C70740
:1037D00009D0CF0507D501271762D4F8802042F021
:1037E0000102C4F8802082070AD5DA0708D02768CA
:1037F00002223A62D4F8802042F00402C4F8802009
:1038000042070AD5DA0708D0236804221A62D4F8DE
:10381000802042F00202C4F8802002070CD501F09B
:103820002002324308D0236808221A62D4F880208C
:1038300042F00802C4F8802002050BD54A0109D5E0
:1038400023684FF400621A62D4F8802042F020020C
:10385000C4F88020D4F88020002A35D0800605D511
:10386000880603D5616E09B120468847D4F88000E8
:1038700021688968490602D410F0280F26D0204616
:1038800000F0E1FE2068806840061AD52068083004
:1038900050E8001F21F0400140E80012002AF5D155
:1038A000206F70B161498163206FFEF7E9FC002849
:1038B0000AD0206F816B01E00EE02046BDE8F041A8
:1038C00008472046FFF768FFBDE8F0812046FFF774
:1038D00063FFC4F88050F7E7276E2026012F7BD1C5
:1038E000C70679D5CF0677D510201062206880688A
:1038F000400641D5216F086840680004000CE3D001
:10390000B4F858208242DFD9A4F85A000868006849
:1039100080062AD4206850E8001F21F4807140E816
:103920000012002AF6D12068083050E8001F21F06C
:10393000010140E80012002AF5D12068083050E863
:10394000001F21F0400140E80012002AF5D1E6678F
:103950002566216851E8000F20F0100041E80002C0
:10396000002AF6D1206FFEF766FCB4F85800B4F8D0
:103970005A10401A81B22AE0B4F85800B4F85A102C
:10398000401A81B2B4F85A0000289DD000299BD07B
:10399000226852E8000F20F4907042E80003002BE8
:1039A000F6D12068083050E8002F22F0010240E8EC
:1039B0000023002BF5D1E66725666566226852E88C
:1039C000000F20F0100042E80003002BF6D1204643
:1039D000FFF7E0FE78E7FFE7C70209D55B0207D5EE
:1039E0004FF4801010622046BDE8F041FFF7D3BECF
:1039F000020606D50A0604D5A16E00297FF45DAF44
:103A000062E74006E6D54806E4D52046026852E85B
:103A1000001F21F0400142E80013002BF6D1866719
:103A2000856600F056F94FE7200100043346000890
:103A300010B5040002D0A06F10B107E0012010BD46
:103A4000002084F87400204600F026F82420A067A7
:103A50002068016821F001010160204600F0B6FEF7
:103A60000128ECD0606A10B1204600F050FD2068BB
:103A7000416821F4904141602068816821F02A0169
:103A800081602068016841F0010101602046BDE8C5
:103A9000104000F0A0BD00002DE9F0439BB00446AB
:103AA000142115A8FCF759FD54216846FCF755FD73
:103AB00033492068334C0327002502264FF00708BE
:103AC0004FF0904988422AD101200090089568461D
:103AD000FEF7F8FD08B1FDF739FE206E40F4804096
:103AE0002066206E00F480401A90E06C40F00100E7
:103AF000E064E06C17AA00F001001A904FF4C06077
:103B0000CDE9150682E8A00115A94846FEF7F2FBAB
:103B1000002211462520FEF757FD25202AE01A49EC
:103B2000884229D1684600960995FEF7CBFD08B179
:103B3000FDF70CFEA06D40F40030A065A06D00F410
:103B400000301A90E06C40F00100E064E06C17AACD
:103B500000F001001A900C20CDE9150682E8A001C2
:103B600015A94846FEF7C6FB002211462620FEF79F
:103B70002BFD2620FEF71AFD1BB0BDE8F0830000E8
:103B800000380140001002400044004030B4C36FD0
:103B9000202B20D1E1B1DAB190F87430012B1AD08A
:103BA000012380F87430002303660C4C0368A342A1
:103BB0000BD05B681B0208D5046854E8003F43F053
:103BC000806344E80035002DF6D130BC00F0ECBE37
:103BD000012030BC70470220FBE70000008000405D
:103BE0000C49884214D10C48007831280CD0322876
:103BF00002D033280AD063204FF08041486301226D
:103C000005490448FFF7C2BF1920F5E74B20F3E749
:103C1000704700007C010020000000202DE9F843DF
:103C20000446806F1F4616460D4620284FD1CDB161
:103C3000C6B194F87400012849D0012084F87400BA
:103C40004FF00008C4F880802120A067FEF758FCE0
:103C5000A4F850608146A4F85260A068B0F5805F77
:103C600003D004E00120BDE8F883206928B12E4686
:103C70005FF0000584F8748010E00026FAE78021E8
:103C8000204600F0EDFEB8B9C6B116F8010B216868
:103C90000885B4F85200401EA4F85200B4F852004F
:103CA0004B464FF0000200970028E8D14FF040014A
:103CB000204600F0D5FE30B10320D4E735F8020BE2
:103CC000C0F30800E3E72020A0670020CBE7022034
:103CD000C9E77047FEE700EB8100006E00F0F84096
:103CE00070478068C0F3C00070478068C0F38000F0
:103CF0007047C06810F4406F01D000207047012069
:103D00007047042303EAD15310B518444369C1F343
:103D1000045107248C40A3438A401343436110BDE0
:103D200000EB8100016E21F00041114301667047F4
:103D300030B587B018216846FCF70FFC1F481E49B4
:103D4000002401604FF40021C0E901140425012181
:103D50004561C0E90341047641760221C16180F8E2
:103D600020408462C46280F83040446380F8384068
:103D7000FEF77AF808B172B6FEE711480090062007
:103D80000190052002907F200594CDE90305694646
:103D90000A48FDF72BFD08B172B6FEE7094800900E
:103DA0000C20019069460548FDF720FD002801D050
:103DB00072B6FEE707B030BD00000450800000205E
:103DC0000002B0250008302E10B588B00024184835
:103DD0000594069403940494009401941349029466
:103DE00001601F21C0E901144FF6FF71C0E90314FF
:103DF00044618461FFF7C2F908B172B6FEE74FF47F
:103E00008050039003A90A48FFF73AFA08B172B646
:103E1000FEE700940194694605480294FFF778F99B
:103E2000002801D072B6FEE708B010BD002C01409A
:103E3000E400002010B58EB0002407940894099483
:103E40000A940B940C941C2168460D94FCF785FB96
:103E50001E484FF08041016040F2CF21C0E90114BB
:103E60006321C0E9031480218161FFF787F908B15C
:103E700072B6FEE74FF48050079007A91348FFF78A
:103E8000FFF908B172B6FEE71048FFF7E6FB08B18C
:103E900072B6FEE70B940BA90C480D94FFF738F9A6
:103EA00008B172B6FEE76020CDE90004029400225A
:103EB000694606480494FFF73EFB08B172B6FEE778
:103EC0000248FFF711FB0EB010BD000030010020CA
:103ED0000C4810B50A4901604FF4165141600021A9
:103EE00081600422C160C0E904128161C161016284
:103EF0004162FFF79DFD002801D072B6FEE710BDBC
:103F0000003801407C0100200C4810B50A490160CE
:103F10004FF416514160002181600C22C160C0E95C
:103F200004128161C16101624162FFF781FD0028D5
:103F300001D072B6FEE710BD004400400002002030
:103F4000FEE7FEE7704700002DE9F041444C0546CE
:103F50008846E0680026810728680DD0E16801F0F6
:103F60000301814216D1A8B1E0686968C0F302106C
:103F7000401C88420ED120E0012804D0022805D040
:103F8000032807D108E02168890701E02168490575
:103F9000002907DB01265FE02168890302D421683C
:103FA0004903F5E7E1686A686FF00F0321F07301D8
:103FB00003EB021211430143E160206820F08060AE
:103FC0002060FEF79DFA074605E000BFFEF798FA6D
:103FD000C01B022837D820680001F7D4B8F1000FC1
:103FE00018D0B8F1010F1DD0287D4FF07E41400858
:103FF00001EB4060A96840EA01202169194A11409B
:1040000008432061206840F080602060FEF778FA65
:1040100007461AE0A868297B000240EAC1602169CE
:10402000114AECE7288A1149400801EB4050A96881
:1040300040EA012021690E4AE1E700BFFEF760FA7D
:10404000C01B022801D9032606E020680001F5D52F
:104050002069A969084320613046BDE8F08100006D
:1040600000100240FF80FFF9FF80FF070000E0FF23
:10407000FF809FFFF8B51C4D06460024A86DC000C8
:1040800002D5FEF707FB0DE0A86D40F08050A86553
:10409000A86D00F080500090FEF7FCFAA96D21F0A9
:1040A0008051A965B0F5007F04D0802E07D94FF06C
:1040B00003040AE0802E08D9A02E01D804E001D123
:1040C000022402E0702E00D101240848016821F08A
:1040D000070121430160006800F00700A04201D001
:1040E0000120F8BD0020F8BD001002400020024071
:1040F0007047FEF70BBA000010B596B04421684631
:10410000FCF72BFA142111A8FCF727FA4FF40070E2
:10411000FEF78CFA08B172B6FEE7FEF7C3FA18484C
:1041200050F8901F21F01801016014200090012028
:104130000290002460210690CDE907410221CDE9DB
:104140000A100C9024200D900720CDE90E0168463E
:104150001091FEF715FD08B172B6FEE70F20119021
:104160000320CDE912041494042111A81594FEF73C
:10417000EFFB08B172B6FEE7FEF79CFA16B010BD71
:10418000001002400248016841F47001016070476C
:1041900088ED00E00148FFF7E4B80000300100209E
:1041A00070B50268164B4FF08046984201D0B0427D
:1041B00003D122F070044A682243124C124D9842F7
:1041C00005D0B04203D0A04201D0A84203D122F4CE
:1041D0004076CA6832434E6922F080023243026060
:1041E0008A68C2620A688262984203D0A04201D003
:1041F000A84201D1096901630121416170BD00003C
:10420000002C0140004001400044014010B501F085
:104210001F030121046A99408C430462016A9A4099
:104220001143016210BD10B5846842EA032224F4F0
:104230007F440A432243826010BD826822F07002EC
:104240000A4342F00701816070470000F0B5026A3E
:1042500022F001020262056A43688269154C25F06A
:10426000020522400C6822F0030214438A68134EB0
:104270002A43114D124FA84203D0B04201D0B84298
:1042800006D122F0080CCA6842EA0C0222F00402AD
:10429000A84203D0B04201D0B84205D14D6923F401
:1042A00040731D438B692B434360846149684163BC
:1042B0000262F0BD8FFFFEFF002C01400040014074
:1042C0000044014030B5026A22F010020262046A22
:1042D00042688369154D2B400D6823F4407343EA0F
:1042E000052524F020038C6843EA0413104CA042F7
:1042F00007D1CC6823F0800343EA041323F0400382
:1043000005E00C4CA04202D00B4CA04207D14C69F6
:1043100022F4406242EA84028C6942EA84024260EA
:10432000856149688163036230BD0000FF8FFFFE35
:10433000002C0140004001400044014030B5026AB9
:1043400022F480720262046A4268C369144D2B40F1
:104350000D6823F003031D4324F400738C6843EAC3
:104360000423104CA04207D1CC6823F4006343EA35
:10437000042323F4806305E00B4CA04202D00B4CD5
:10438000A04207D14C6922F4405242EA04128C69DF
:1043900042EA04124260C5614968C163036230BDEC
:1043A0008FFFFEFF002C014000400140004401400F
:1043B00030B5026A22F480520262046A4268C3691C
:1043C0000F4D24F400542B400D6823F4407343EA4E
:1043D00005238D6844EA05340A4DA84205D00A4DEC
:1043E000A84202D0094DA84204D14D6922F480426E
:1043F00042EA85124260C36149680164046230BDCB
:10440000FF8FFFFE002C01400040014000440140AE
:1044100030B5026A22F480320262046A4268436D57
:104420000E4D2B400D681D4324F400330C8943EAE4
:1044300004430B4CA04205D00A4CA04202D00A4CC7
:10444000A04204D14C6922F4803242EA0422426044
:10445000456549688165036230BD00008FFFFEFF3E
:10446000002C0140004001400044014030B5026A88
:1044700022F480120262046A4268436D0E4D24F4F5
:1044800000142B400D6843EA05230D8944EA0554C6
:104490000A4DA84205D00A4DA84202D0094DA842B3
:1044A00004D14D6922F4802242EA852242604365AC
:1044B0004968C165046230BDFF8FFFFE002C0140DA
:1044C000004001400044014010B5036A046A24F032
:1044D00001040462846924F0F00444EA021423F025
:1044E0000A020A438461026210BD10B5036A23F018
:1044F000100303628369046A23F4704343EA0232BF
:1045000024F0A00343EA01118261016210BD90F81A
:104510002410C90706D001684A68836A22F4003271
:104520001A434A6090F82410890706D501684A6842
:10453000C36A22F480321A434A6090F82410490773
:1045400006D501684A68036B22F480221A434A6048
:1045500090F82410090706D501684A68436B22F4D5
:1045600000421A434A6090F82410C90606D5016833
:104570008A68836B22F480521A438A6090F8241070
:10458000890606D501688A68C36B22F400521A4373
:104590008A6090F82410490611D501684A68036CB6
:1045A00022F480121A434A60016CB1F5801F06D1D3
:1045B00001684A68436C22F4C0021A434A6090F8CA
:1045C0002410090606D501684A68806C22F400228E
:1045D00002434A607047F8B500260446C0F8806080
:1045E000FDF78EFF0546206800686FF07E470007E4
:1045F00008D52B4600224FF400112046009700F00A
:104600002FFA60B92068006840070AD52B460022BF
:104610004FF480012046009700F022FA08B10320F1
:10462000F8BD2020A067E067266684F8746000204B
:10463000F8BD10B5806A0021A0F85A10A0F85210F9
:10464000FFF7AAF810BD016851E8002F22F490721C
:1046500041E80023002BF6D10168083151E8002F12
:1046600022F0010241E80023002BF5D1016E01295F
:1046700008D1026852E8001F21F0100142E800133F
:10468000002BF6D12021C1670021016641667047E9
:1046900010B5B0F85C20C36F0168222B04D0088BE2
:1046A00040F00800088310BD898C436D11401980CB
:1046B000416D891C4165B0F85A10491EA0F85A1086
:1046C000B0F85A100029EED1026852E8001F21F418
:1046D000907142E80013002BF6D10168083151E8CF
:1046E000002F22F0010241E80023002BF5D1202108
:1046F000C16700214166026E012A02D0FFF770FAFD
:1047000010BD0166026852E8001F21F0100142E866
:104710000013002BF6D10168CA69D243D20601D436
:1047200010220A62B0F85810FFF734F810BD10B527
:10473000B0F85C20C36F0168222B04D0088B40F0D6
:104740000800088310BD898C1140426D1170416DC5
:10475000491C4165B0F85A10491EA0F85A10B0F82B
:104760005A100029EED1026852E8001F21F490711E
:1047700042E80013002BF6D10168083151E8002F00
:1047800022F0010241E80023002BF5D12021C1676E
:1047900000214166026E012A02D0FFF721FA10BD06
:1047A0000166026852E8001F21F0100142E8001380
:1047B000002BF6D10168CA69D243D20601D4102277
:1047C0000A62B0F85810FEF7E5FF10BD2DE9F04180
:1047D0000446016880682269E66910436269002521
:1047E00032431043694B0A68694E324002430A6003
:1047F00020684168E26821F440511143416021681A
:10480000A069994201D0226A10438A6822F430627A
:1048100002438A605F4927685F488F420DD1D0F814
:10482000880010F0030006D0012838D0022834D0C8
:10483000032821D135E001211FE058498F420BD1D7
:10484000D0F8880010F00C0025D0042827D00828C4
:1048500023D00C2810D124E09F420DD1D0F888003D
:1048600010F4406017D0B0F5806F18D0B0F5006F2D
:1048700013D0B0F5406F14D01021494A00264FF4F0
:1048800000409F422FD171B102290FD004290FD0CF
:10489000082973D10FE00021EFE70221EDE70421A1
:1048A000EBE70821E9E7FEF7F5F803E0104602E040
:1048B000FEF714F9F0B3626802EB420181425DD861
:1048C000B0EB023F5AD8010E03025008181871418C
:1048D0000023FBF7DBFC334AA0F5407191424DD831
:1048E0002168C8604BE0E3694FF6EF77834228D137
:1048F000092943D2DFE801F005080B420D4242428C
:104900001000FEF7C7F806E0FEF7D6F803E0104601
:1049100002E0FEF7E3F868B14100606801EB500186
:10492000B1FBF0F0A0F11001B94227D84FF6F071B9
:10493000014000E023E0C0F3420001432068C16071
:104940001DE009291AD2DFE801F005080B190D193D
:1049500019191000FEF79EF806E0FEF7ADF803E027
:10496000104602E0FEF7BAF848B1616800EB51006A
:10497000B0FBF1F0A0F11001B94205D9012566663E
:104980002846A666BDE8F08180B2A9E70080004015
:10499000F369FFEF0038014000100240004400407E
:1049A0000024F400FFFC0F0030B54165A0F858204A
:1049B000A0F85A200022426681684FF48055FF23F8
:1049C000A94204D1016971BB40F2FF1131E07F249B
:1049D00039B3B1F1805F29D0A0F85C20C0F8802005
:1049E0002221C1670168083151E8003F43F001030B
:1049F00041E80034002CF5D18168A94201D1016958
:104A0000E9B11549416680F874200169C9B10268AD
:104A100052E8001F41F4907142E80013002BF6D1D8
:104A200018E0016941B9A0F85C30D7E7016919B114
:104A30003F21A0F85C10D1E7A0F85C40CEE7074921
:104A4000E0E7026852E8001F41F0200142E800134D
:104A5000002BF6D1002030BD2F47000891460008FA
:104A60002DE9F0479A4617460E4604464FF00009D6
:104A70004FF02008089D4AE0681C48D0FDF740FD33
:104A8000A0EB0A00A8422AD84DB320680168490764
:104A90003DD5C069C043000539D421684FF400609A
:104AA0000862206850E8001F21F4D07140E800122D
:104AB000002AF6D12068083050E8001F21F00101DB
:104AC00040E80012002AF5D1C4F87880C4F87C8050
:104AD000C4F8808084F874900320BDE8F0872168D2
:104AE00051E8000F20F4D07041E80002002AF6D10E
:104AF0002068083050E8001F21F0010140E8001252
:104B0000002AF5D1C4F87880C4F87C80E2E72068F8
:104B1000C06936EA000004D00020B842ACD00020C2
:104B2000DBE70120F9E700000148FEF737BE00008F
:104B30007C0100200148FEF731BE00000002002089
:104B4000FEE703B401984100009850EAC12018BF65
:104B500004204A0D18BF40F0010040F2FF72B2EB92
:104B6000515F08BF40F00200012808BF052002B0D5
:104B700070470907090E002804DB00F1E02080F8E7
:104B80000014704700F00F0000F1E02080F8141DC1
:104B9000704730380A2801D2012070470020704742
:104BA00000B587B018216846FBF7D7FC0A4800908B
:104BB00006200190052002907F200390042004909D
:104BC0000020059069460548FCF710FE002801D03A
:104BD00072B6FEE707B000BD0008302E800000204E
:104BE00000B587B018216846FBF7B7FC0A4800906B
:104BF00006200190052002907F200390042004905D
:104C00000020059069460548FCF7F0FD002801D01A
:104C100072B6FEE707B000BD0002B025800000209C
:104C20002DED028B86B0FDF779FCFFF765FA1421B4
:104C30006846FBF792FC5748C16C41F00401C1641F
:104C4000C16C01F004010591C16C41F00101C16426
:104C5000C06C40F6020400F001004FF09045059052
:104C6000002221462846FDF746FC01200021009441
:104C7000CDE90101039169462846FDF73BFBFFF7AB
:104C800057F8FFF7A1F8FFF73FF9FFF721F9FFF712
:104C9000D1F84148FEF772FA3F48FEF7C9FA3E489C
:104CA0004C30FEF76BFA3C4800214C30FEF708FD13
:104CB00039483A496438FCF74BFD322041074863D4
:104CC0003548012236499830FEF760FF344C9FED9D
:104CD000358ADFED358A4FF47A754FF0FF3600BF25
:104CE000FFF75EFF2C486438FDF742FA2A48294650
:104CF0006438FDF7E5F928486438FCF7B0FF6080B8
:104D000025486438FDF778FA628828A12948FBF71E
:104D100035FB284933460A22A1F18400FEF77EFFC5
:104D2000FFF75EFF1C486438FDF722FA1A4829464F
:104D30006438FDF7C5F918486438FCF790FF00EEB9
:104D4000100A1548B8EE400A643884ED010AFDF7F0
:104D500053FA94ED010A60EE080A80EEA80A84ED89
:104D6000020A10EE100A00F047F841EC100B0A4856
:104D700053EC102B10A1C838FBF700FB0649334653
:104D8000C839642201F5F270FEF748FF2846FDF7A6
:104D90009FFAA5E700100240E40000200002B025C1
:104DA000000000200000A54300F07F4525640D0AA7
:104DB000000000008402002025302E33660D0A001A
:104DC00010B500290AD00878002807D00548784493
:104DD000FBF7A4FF002801D0002010BD0248784452
:104DE00010BD00002A020000220200000808A0F501
:104DF00000114FEA3101704743004FEAD30C4FEAEC
:104E00003C0C43401FBF40070CF1605113F0FE4FB4
:104E100070471CF0006F03D100200CF00041704778
:104E20000CF0004343EA507010B540EACC0000F0AB
:104E30000EF800BF000000924FEA0001FFF7D6BF56
:104E40004FF000414FF00000A1F5002170470EF136
:104E5000020E2EF0030E5EF8044B244204D44FEAF7
:104E60004102B2F17F4F11D84FEA4003B3F17F4FB7
:104E70000CD80ED14FEAD07CB2F17F4F0CEB4C0C2A
:104E80000CF1020C08BF4CEBD17C04E04FF0080C95
:104E900001E04FEAD17C0CEB4C0324FA03F404F05C
:104EA0000704B4F1040C06D20EEB840CBDE81040EC
:104EB0004CF0010C6047DFE80CF0070802024FF0ED
:104EC0000040A0F5800010BD0846420018BFD2F196
:104ED000807288BF00F0004010BD4FF04070E1EEDE
:104EE000100A7047FBF795BC0000000000000000AE
:104EF0000102030406070809A0860100400D030013
:104F0000801A060000350C0040420F0080841E000D
:104F100000093D0000127A000024F40000366E0102
:104F20000048E801006CDC020000000001020304FC
:104F30000400000800000000000000020001000062
:104F40001000000002400000000000A0000000006F
:104F500005400000000000C8000000000C400000F8
:104F60000000409C00000000194000000020BCBE72
:104F70000000000034400000BFC91B8E0000000488
:104F8000B5400000504BCFD06607E2CF01000000D3
:104F90006C4100003E8251AADFEEA7340100000000
:104FA000D9420000DCB5A0E23A301F97FFFFFFFFB7
:104FB000B4450000FD25A0C8E9A3C14FFFFFFFFFD6
:104FC000FF3F00000000008000000000FF3F0000E5
:104FD00000000080000000001450000800000020C5
:104FE0001C000000C8010008305000081C00002010
:104FF000D4080000E40100081C0000004300000089
:10500000F8FFFFFF0C0000000E0000000F00000082
:105010002E00000000000000000000000000000062
:1050200001000000100000000000000000093D0029
:040000050800018D61
:00000001FF
